:100000000C943A000C9457000C9457000C94230164
:100010000C9411020C9457000C9457000C94570048
:100020000C9457000C9457000C9457000C94E20069
:100030000C9457000C9457000C9457000C945700E4
:100040000C9457000C9457000C94F1020C94570038
:100050000C9457000C9457000C9457000C945700C4
:100060000C9457000C9457006364696E6F7073753D
:1000700078585B0011241FBECFEFD8E0DEBFCDBFA4
:1000800011E0A0E0B1E0EEECF5E102C005900D92C8
:10009000A434B107D9F721E0A4E4B1E001C01D9276
:1000A000AD39B207E1F70E9470030C94E50A0C9495
:1000B00000008EE591E001970097D1F0419A20E988
:1000C00030E0215031092115310529F045E34A95E9
:1000D000F1F70000F6CF419820E930E021503109D6
:1000E0002115310541F345E34A95F1F70000F6CFBC
:1000F00008956091890170918A0188E893E10E94D6
:10010000890460938601709387017F936F9382E0E7
:1001100091E09F938F931F9284E18F9388E691E003
:100120009F938F930E94B10467E080E00E94670173
:1001300088E691E00E94B10180918601909187014B
:100140002AE0AC01249FC001259F900D11240E943C
:10015000C90281E0809300018DB79EB708960FB663
:10016000F8949EBF0FBE8DBF089530916501209118
:10017000910190919001809185011F923F931F9270
:100180002F931F929F931F928F9389E091E09F93EB
:100190008F931F9287E08F938AE491E09F938F93D0
:1001A0000E94B1048DB79EB70E960FB6F8949EBF0D
:1001B0000FBE8DBF8AE491E00C94B1012D9A089591
:1001C0002D9808951F920F920FB60F9211248F93BE
:1001D0009F9380914401882379F1809189019091C6
:1001E0008A01019690938A0180938901809165012B
:1001F0008F5F80936501809165018A3039F4109298
:100200006501809191018F5F8093910180919101AF
:100210008A3039F410929101809190018F5F809320
:100220009001809190018A3039F410929001809170
:1002300085018F5F809385019F918F910F900FBEF5
:100240000F901F9018951F920F920FB60F921124C6
:100250008F9383B184FD05C0109200011092440178
:1002600013C083FD11C081E080930001809344019D
:1002700010928A01109289011092650110928501F5
:1002800010929001109291018F910F900FBE0F90DC
:100290001F9018959BB19F709BB99BB1807F892B54
:1002A0008BB9299A299A29980895CF93C82F28980D
:1002B0000E944A018C2F8295807F0E944A018FE321
:1002C0009FE10197F1F700C00000CF9108958111DF
:1002D00002C080E801C080EC860F0C9455018AB101
:1002E000806F8AB984B1836084B98FE59AEE0197F3
:1002F000F1F700C0000080E30E944A018FE19EE414
:100300000197F1F700C0000080E30E944A018FEDE1
:1003100091E00197F1F700C0000080E30E944A01DC
:1003200080E20E944A018FE39FE10197F1F700C04C
:10033000000088E20E9455018FE00C945501CF9394
:10034000C82F289A0E944A018C2F8295807F0E9494
:100350004A018FE39FE10197F1F700C00000CF91C0
:100360000895CF93DF93EC018991882319F00E94BF
:100370009F01FACFDF91CF91089580E090E00E9435
:1003800081098093010180910101843610F083E698
:1003900005C080910101811103C081E080930101BA
:1003A00088B1806388B9809168008260809368001A
:1003B00080916C00806380936C0086B1809388018B
:1003C000809188018071809395018091880180726D
:1003D0008093920180919201811107C080919501D3
:1003E000811103C01092930117C080919201811175
:1003F00006C080919501882311F081E00BC08091A7
:100400009201882331F080919501811102C082E030
:1004100001C083E0809393018091930180939401C4
:1004200008951F920F920FB60F9211248F939F93EE
:1004300086B18093880180918801807180939501B5
:100440008091880180728093920180919301811143
:1004500011C080919501882321F0809101018F5F67
:100460004AC080919201882309F44AC08091010119
:10047000815036C080919301813081F48091950143
:10048000811104C08091010181501EC080919201B0
:100490008823B1F1809101018F5F0BC0809193019E
:1004A0008230B9F480919501882339F0809101015F
:1004B00081508093010183E021C0809192018111DC
:1004C0001FC0809101018F5F809301011092940100
:1004D00017C080919501811107C0809101018F5F44
:1004E0008093010182E00AC080919201811108C0CD
:1004F0008091010181508093010181E080939401FA
:100500009091940180919301981799F081E08093E4
:10051000450190919401909393019091010194363B
:1005200010F083E604C090910101911102C0809304
:1005300001019F918F910F900FBE0F901F90189502
:1005400087E690E09093C5008093C400E1ECF0E072
:1005500080818068808386E08093C200808188618A
:10056000808308958093C6008091C00085FFFCCFF2
:100570000895CF93DF93EC018991882339F090EDB2
:10058000980F9A30C8F70E94B202F6CFDF91CF9150
:100590000895803127E292071CF510928F019F93F6
:1005A0008F9380E491E09F938F931F9285E08F93C8
:1005B0008BE891E09F938F930E94B1048CE30E949B
:1005C000B2028BE891E00E94B9028DB79EB70896FF
:1005D0000FB6F8949EBF0FBE8DBF8EE30C94B2028F
:1005E00008951F920F920FB60F9211242F933F93ED
:1005F0004F935F936F937F938F939F93AF93BF932B
:10060000EF93FF932091C6002C3351F481E0809347
:1006100049011092460110924801109247014FC0C3
:100620002E3309F58091470190914801892B09F4F7
:1006300046C0109249018BE991E09F938F9386E029
:1006400091E09F938F9386E991E09F938F930E940F
:10065000E10481E0809346010F900F900F900F907E
:100660000F900F902CC080914901882341F180EDBB
:10067000820F8A3038F01092480110924701109290
:1006800049011DC0809147019091480104973CF0B9
:1006900010924801109247011092460110C0E0915B
:1006A0004701F0914801EA56FE4F208380914701AF
:1006B0009091480101969093480180934701FF91E2
:1006C000EF91BF91AF919F918F917F916F915F91CA
:1006D0004F913F912F910F900FBE0F901F90189543
:1006E000539A5B980E946F010E94BD010E94A00274
:1006F0007894399A85B1886185B980916800816064
:100700008093680080916B00886180936B00259ACC
:1007100080916F00826080936F008091810088607B
:100720008093810080E89EE3909389008093880005
:100730008091810081608093810081E00E94550159
:1007400083E191E00E94B10160E081E00E946701D5
:1007500080E291E00E94B1012FEF39E688E121505B
:1007600030408040E1F700C0000081E00E94550168
:1007700030916501209191019091900180918501C6
:100780001F923F931F922F931F929F931F928F93BD
:1007900089E091E09F938F931F9287E08F938AE483
:1007A00091E09F938F930E94B104809101011F9269
:1007B0008F938EE291E09F938F931F9284E18F93AA
:1007C00081E791E09F938F930E94B10460E080E005
:1007D0000E9467018AE491E00E94B10160E081E03B
:1007E0000E94670181E791E00E94B1012DB73EB7F9
:1007F0002A5E3F4F0FB6F8943EBF0FBE2DBFCEE22C
:10080000D1E084E1982E01E711E09AE0A92EB12C05
:1008100026E3E22E21E0F22E31E5C32E31E0D32E85
:1008200080914501882319F1809101011F928F93D6
:10083000DF93CF931F929F921F930F930E94B10457
:1008400060E081E00E94670181E791E00E94B101D0
:100850006091010180E090E00E9489092DB73EB7C8
:10086000285F3F4F0FB6F8943EBF0FBE2DBF80915B
:100870004401882341F00E94DE0060E080E00E9495
:1008800067010E94B50080910001811104C00E949F
:10089000E0000E94790080914601813009F667E00E
:1008A0000E94670180919B0190919C01909370013F
:1008B00080936F01B5010E949D0460939B0170932A
:1008C0009C019F938F937F936F93FF92EF921F9260
:1008D0009F92DF92CF920E94B10481E591E00E9445
:1008E000B1018091010190E02DB73EB7265F3F4FE7
:1008F0000FB6F8943EBF0FBE2DBF20919B013091E3
:100900009C018217930714F40E945900109246012B
:1009100087CFAA1BBB1B51E107C0AA1FBB1FA6178D
:10092000B70710F0A61BB70B881F991F5A95A9F798
:1009300080959095BC01CD01089597FB072E16F484
:10094000009407D077FD09D00E94890407FC05D0E8
:100950003EF4909581959F4F0895709561957F4FD6
:100960000895AEE0B0E0E7EBF4E00C94BC0A0D892A
:100970001E898F89988D26E02C831A83098397FF1F
:1009800002C080E090E801979E838D83AE01455EB2
:100990005F4F698D7A8DCE0101960E94FA044D81D8
:1009A0005E8157FD0AC02F813885421753070CF42A
:1009B0009A01F801E20FF31F10822E96E4E00C94E6
:1009C000D80AAEE0B0E0E7EEF4E00C94BE0A85E0B1
:1009D0008C838B899C899A838983AE01495E5F4FA2
:1009E0006D897E89CE0101960E944A082E96E2E02A
:1009F0000C94DA0AACE0B0E0E0E0F5E00C94AE0A6A
:100A00007C016B018A01FC0117821682838181FFC0
:100A1000BDC1CE0101964C01F7019381F60193FD12
:100A2000859193FF81916F01882309F4ABC18532D1
:100A300039F493FD859193FF81916F01853229F4FB
:100A4000B70190E00E94020AE7CF512C312C20E040
:100A50002032A0F48B3269F030F4803259F08332C6
:100A600069F420612CC08D3239F0803339F4216073
:100A700026C02260246023C0286021C027FD27C033
:100A800030ED380F3A3078F426FF06C0FAE05F9E6A
:100A9000300D1124532E13C08AE0389E300D1124DE
:100AA000332E20620CC08E3221F426FD6BC12064EF
:100AB00006C08C3611F4206802C0883641F4F60175
:100AC00093FD859193FF81916F018111C1CF982F83
:100AD0009F7D9554933028F40C5F1F4FFFE3F983FB
:100AE0000DC0833631F0833771F0833509F05BC078
:100AF00022C0F801808189830E5F1F4F44244394F4
:100B0000512C540115C03801F2E06F0E711CF80130
:100B1000A080B18026FF03C0652D70E002C06FEF9A
:100B20007FEFC5012C870E94B9092C0183012C8518
:100B30002F77222E17C03801F2E06F0E711CF801DA
:100B4000A080B18026FF03C0652D70E002C06FEF6A
:100B50007FEFC5012C870E94AE092C012C852068EF
:100B6000222E830123FC1BC0832D90E048165906DA
:100B7000B0F4B70180E290E00E94020A3A94F4CF08
:100B8000F50127FC859127FE81915F01B70190E077
:100B90000E94020A31103A94F1E04F1A51084114B0
:100BA000510471F7E5C0843611F0893639F5F80142
:100BB00027FF07C060817181828193810C5F1F4F85
:100BC00008C060817181882777FD8095982F0E5F1E
:100BD0001F4F2F76B22E97FF09C090958095709584
:100BE00061957F4F8F4F9F4F2068B22E2AE030E0F3
:100BF000A4010E944D0AA82EA81844C0853729F4E4
:100C00002F7EB22E2AE030E025C0F22FF97FBF2ED2
:100C10008F36C1F018F4883579F0B4C0803719F0F8
:100C2000883721F0AFC02F2F2061B22EB4FE0DC047
:100C30008B2D8460B82E09C024FF0AC09F2F9660B8
:100C4000B92E06C028E030E005C020E130E002C047
:100C500020E132E0F801B7FE07C060817181828136
:100C600093810C5F1F4F06C06081718180E090E02E
:100C70000E5F1F4FA4010E944D0AA82EA818FB2D3D
:100C8000FF77BF2EB6FE0BC02B2D2E7FA51450F480
:100C9000B4FE0AC0B2FC08C02B2D2E7E05C07A2CF3
:100CA0002B2D03C07A2C01C0752C24FF0DC0FE0132
:100CB000EA0DF11D8081803311F4297E09C022FFE5
:100CC00006C07394739404C0822F867809F07394DD
:100CD00023FD13C020FF06C05A2C731418F4530CC4
:100CE0005718732C731468F4B70180E290E02C87D6
:100CF0000E94020A73942C85F5CF731410F43718F0
:100D000001C0312C24FF12C0B70180E390E02C8792
:100D10000E94020A2C8522FF17C021FF03C088E52C
:100D200090E002C088E790E0B7010CC0822F86787F
:100D300059F021FD02C080E201C08BE227FD8DE267
:100D4000B70190E00E94020AA51438F4B70180E3CD
:100D500090E00E94020A5A94F7CFAA94F401EA0D97
:100D6000F11D8081B70190E00E94020AA110F5CF29
:100D7000332009F451CEB70180E290E00E94020ACC
:100D80003A94F6CFF7018681978102C08FEF9FEFEB
:100D90002C96E2E10C94CA0A20FD09C0FC0123FD57
:100DA00005C022FF02C0738362835183408308958C
:100DB00044FD10C046FD10C0DB01FC01AA0FBB1FA3
:100DC000EE1FFF1F1094D1F76A0F7B1F8E1F9F1F0E
:100DD00031E003C033E001C034E0660F771F881FA5
:100DE000991F3150D1F7620F711D811D911D08951A
:100DF0000F931F93CF93DF938C01C8010E94C40906
:100E0000EC0197FD08C00E949B09892BB1F7B8013E
:100E1000CE010E94340ACE01DF91CF911F910F9134
:100E200008958F929F92AF92CF92DF92EF92FF92AE
:100E30000F931F93CF93DF93EC01A62E4A01022F4D
:100E40000E94C409AC0155274B32510521F04D32A7
:100E5000510551F40068AA9411F480E067C0CE01F6
:100E60000E94C40997FDF9CF102F1D7F302F3073DA
:100E700001F58033F1F4FF24FA94FA0C09F442C02E
:100E8000CE010E94C40997FD3DC0382F3F7D383503
:100E900051F41264AA94AA94A9F1CE010E94C40943
:100EA00097FF07C02FC006FF02C0126001C0126189
:100EB000AF2CC12CD12C760120ED280F283080F0EA
:100EC00014FF04C0BE010E94340A19C02A3040F049
:100ED00016FFF8CF2F7D3FEE320F363098F72750B0
:100EE000412FC701B6010E94D8066B017C01126038
:100EF000AA9459F0CE010E94C40997FFDDCF11FDDD
:100F000004C0ABCFC12CD12C760117FF08C0F094E0
:100F1000E094D094C094C11CD11CE11CF11C212F81
:100F2000B701A601C4010E94CC0681E0DF91CF91F8
:100F30001F910F91FF90EF90DF90CF90AF909F9017
:100F40008F900895A1E2B0E0E8EAF7E00C94B30ACC
:100F50005C017A018E010F5F1F4F680180E2D801AA
:100F60001D928A95E9F7F501738040E050E0812CED
:100F7000B0E0912C81E090E0F90173FCA59173FE43
:100F8000A1918F017A2F9F01A11103C080E090E011
:100F90007DC0AE3519F44115510559F1E92DF0E048
:100FA000E417F5073CF4AD3569F1AD3219F4BB2314
:100FB00019F103C0B11101C08A2EE72FE695E6951D
:100FC000E69586010E0F111DF801A72FA7708C0161
:100FD00002C0000F111FAA95E2F7D801B081BA2B09
:100FE000B083781559F0781510F47F5FE6CF715013
:100FF000E4CF9924939403C0B1E001C0B0E04F5F07
:101000005F4FBACFBB2319F08E8180628E8391101F
:1010100003C09924939415C0F601CE0181962081D6
:1010200020952193E817F907D1F7F3CFE114F104E4
:1010300029F0D7018C93F70131967F01615001F1BE
:10104000912CC50169A30E94C40969A197FD16C02E
:10105000282F269526952695F601E20FF11D208171
:1010600030E0AC014770552702C0359527954A9569
:10107000E2F720FDDBCFB5010E94340A911086CF44
:10108000E114F10411F0D7011C92C801A196EDE022
:101090000C94CF0A4F925F927F928F929F92AF9261
:1010A000BF92CF92DF92EF92FF920F931F93CF9355
:1010B000DF931F92CDB7DEB78C012B017A01FC01C3
:1010C00017821682A12CF801D380F201D3FC8591FE
:1010D000D3FE8191382F2F01882309F4FCC090E0C2
:1010E00039830E949B093981892B21F0C8010E9414
:1010F000F806E9CF353241F4F201D3FC3591D3FE45
:1011000031912F01353269F4C80139830E94C40935
:10111000398197FDDEC03817B1F2B8010E94340A58
:10112000DAC03A3241F4D3FC3591D3FE31912F012C
:10113000BB24B39401C0B12C712C20ED230F2A30B5
:1011400090F4FB2DF260BF2E672D70E080E090E000
:1011500040E20E94D806762EF201D3FC3591D3FEF0
:1011600031912F01EACFB1FE03C0711003C0B3C0AB
:1011700077247A94383619F03C3661F014C0F201C5
:10118000D3FC3591D3FE31912F01383661F4FB2D1C
:10119000F860BF2E8B2D8460B82EF201D3FC359100
:1011A000D3FE31912F01332309F495C0632F70E0F2
:1011B00088E690E039830E94A3093981892B09F4DC
:1011C0008AC0B0FC07C0F701C080D180C701029679
:1011D0007C0102C0C12CD12C3E3651F4F80146816D
:1011E000578160E070E02B2DC6010E94CC066BCFCA
:1011F0003336A1F4B1FC02C077247394C8010E9475
:10120000C40997FD66C0C114D10429F0F60180839A
:10121000C60101966C017A9489F757C03B3559F4A1
:101220009201A601672DC8010E94A2072C01009718
:1012300009F04BC045C0C80139830E94F8063981C6
:1012400097FD47C03F3669F128F4343631F139361D
:1012500079F12BC0333769F03537F9F026C0C11466
:10126000D10429F0F6018082C60101966C017A94BE
:1012700071F0C8010E94C4094C0197FD08C00E948A
:101280009B09892B61F3B801C4010E94340AC1147F
:10129000D104D9F0F601108218C0FB2DF062BF2EE8
:1012A00007C08B2D8061B82E03C09B2D9064B92E92
:1012B0002B2DA601672DC8010E941107811105C0C1
:1012C000F8018381807329F406C0B0FCFCCEA3949E
:1012D000FACEAA2019F08A2D90E002C08FEF9FEF7E
:1012E0000F90DF91CF911F910F91FF90EF90DF90C2
:1012F000CF90BF90AF909F908F907F905F904F90D6
:101300000895F999FECF92BD81BDF89A992780B5CD
:101310000895262FF999FECF92BD81BDF89A0197C5
:1013200000B4021639F01FBA20BD0FB6F894FA9A2D
:10133000F99A0FBE089591110EC1803219F08950AB
:101340008550D0F70895FC010590061621F0002085
:10135000D9F7C00108953197CF010895FC01059098
:10136000615070400110D8F7809590958E0F9F1FA7
:101370000895FC016150704001900110D8F78095EC
:1013800090958E0F9F1F0895CF93DF93EC012B81D3
:1013900020FF33C026FF0AC02F7B2B838E819F81C5
:1013A00001969F838E838A8190E029C022FF0FC01F
:1013B000E881F9818081992787FD9095009719F43C
:1013C00020622B831AC03196F983E8830EC0EA8528
:1013D000FB85099597FF09C02B81019611F480E1E7
:1013E00001C080E2822B8B8308C02E813F812F5F5A
:1013F0003F4F3F832E83992702C08FEF9FEFDF91EE
:10140000CF9108950F931F93CF93DF93182F092F38
:10141000EB018B8181FD03C08FEF9FEF20C082FF26
:1014200010C04E815F812C813D81421753077CF4AF
:10143000E881F9819F012F5F3F4F39832883108313
:1014400006C0E885F985812F0995892B29F72E811A
:101450003F812F5F3F4F3F832E83812F902FDF915E
:10146000CF911F910F910895FB01238120FF12C09E
:1014700026FD10C08F3F3FEF930761F082832F7DE1
:1014800020642383268137812150310937832683C5
:10149000992708958FEF9FEF0895FA01AA27283022
:1014A00051F1203181F1E8946F936E7F6E5F7F4F31
:1014B0008F4F9F4FAF4FB1E03ED0B4E03CD0670FAD
:1014C000781F891F9A1FA11D680F791F8A1F911D00
:1014D000A11D6A0F711D811D911DA11D20D009F450
:1014E00068943F912AE0269F11243019305D319392
:1014F000DEF6CF010895462F4770405D4193B3E07B
:101500000FD0C9F7F6CF462F4F70405D4A3318F021
:10151000495D31FD4052419302D0A9F7EACFB4E0D2
:10152000A6959795879577956795BA95C9F700978A
:101530006105710508959B01AC010A2E069457952B
:10154000479537952795BA95C9F7620F731F841F82
:10155000951FA01D08959927882708952F923F92DF
:101560004F925F926F927F928F929F92AF92BF92B3
:10157000CF92DF92EF92FF920F931F93CF93DF935F
:10158000CDB7DEB7CA1BDB0B0FB6F894DEBF0FBEBC
:10159000CDBF09942A88398848885F846E847D8409
:1015A0008C849B84AA84B984C884DF80EE80FD800B
:1015B0000C811B81AA81B981CE0FD11D0FB6F89481
:0E15C000DEBF0FBECDBFED010895F894FFCF42
:1015CE00010154533A2025640025642E25642564B8
:1015DE00256400476C6F726961204E64756B610003
:1015EE0046696E616C2050726F6A656374004D615E
:1015FE00783D2532640052533A2025642E2564002E
:04160E00253464001B
:00000001FF
